:020000040800F2
:100000000810002071010008392300085924000855
:100010003923000839230008392300083923000850
:1000200039230008392300080C2B00083923000865
:1000300039230008BC2A00083923000839230008A6
:100040003923000839230008392300083923000820
:100050003923000839230008392300083923000810
:100060003923000839230008392300083923000800
:1000700039230008392300083923000839230008F0
:1000800039230008392300083923000839230008E0
:1000900039230008392300083923000839230008D0
:1000A00039230008392300083923000839230008C0
:1000B00039230008392300083923000839230008B0
:1000C00039230008392300083923000839230008A0
:1000D0003923000839230008392300083923000890
:1000E0003923000839230008392300083923000880
:1000F0003923000839230008392300083923000870
:10010000392300083923000839230008392300085F
:10011000392300083923000839230008392300084F
:10012000392300083923000839230008392300083F
:10013000392300083923000839230008392300082F
:10014000392300083923000839230008392300081F
:10015000392300083923000839230008392300080F
:1001600039230008392300083923000839230008FF
:1001700008B50B4B83F30A880A4B07A1D1E90001AC
:10018000C3E9000100F07EF800F0CCFC00F054F868
:1001900000F066F800F06CFCA5EDF5FEA5EDF5FEAF
:1001A00008000020081000200348044B834202D0BE
:1001B000034B03B118477047441300204413002039
:1001C00000000000064B0749C91A891048BF0131D9
:1001D000491003D0044B0BB101481847704700BFCA
:1001E00044130020441300200000000010B5064C0A
:1001F000237843B9FFF7D8FF044B13B10448AFF39A
:1002000000800123237010BD5E100020000000005C
:10021000582C000808B5054B1BB105490548AFF33C
:100220000080BDE80840FFF7CDBF00BF0000000020
:1002300010100020582C0008064B0748DA1C121A30
:10024000C11E22F00302994288BF0022034902F036
:1002500040BB00BF44130020E4120020642C0008BF
:10026000064B0748DA1C121AC11E22F003029942FB
:1002700088BF0022002102F024BB00BFE41200204E
:1002800010100020044B054A9A60D3F8882042F4ED
:100290007002C3F88820704700ED00E000000008FD
:1002A0000023024A1370024A137070476010002046
:1002B0005F10002038B503780446042B0D463FD06C
:1002C00009D8012B0BD0032B4FF018033CD040F67C
:1002D00003102B7038BD182B36D0432BF4E7224B7C
:1002E0004278197801BB012A03D0152340F6041087
:1002F000EFE71A70A3781344FF2BF6D10022802178
:10030000E01C02F0D6F994F88320C0F30F239A4240
:1003100021D194F88430C0B2834220D1134B62784B
:1003200000201A700623D4E7104B1B7893420ED09E
:100330000133DBB29342DDD0152340F60510C8E748
:10034000062340F60710C4E740F60810C1E706236D
:1003500040F60610BDE7152340F60210B9E7152355
:1003600040F60110B5E700BF5F10002060100020CC
:100370000149024800F03AB8D829000828100020A6
:1003800010B592B047221849684602F0A2FA02F06E
:1003900040F80A22C0F30363092B8CBF3733303394
:1003A0008DF81430C0F30343B3FBF2F102FB1133B9
:1003B00000F00F0030338DF81730B0FBF2F302FB82
:1003C000130001F13004303003F130018DF81910C1
:1003D0008DF81A000122472168468DF8164000F07A
:1003E0008FFD002012B010BDE82900082DE9F04F64
:1003F0000024ADF5257D4FF49472064688465AA830
:1004000021468DF80B4002F05CFA2146682204A8D0
:1004100002F057FA214668221EA802F052FA3C2741
:1004200000F04CFC01254FF0FF34DFF82093DFF89B
:1004300020A3DFF820B36B1E052B09D8DFE813F0EB
:100440000C001E0041005B005401C0000425F2E7CF
:10045000FFF796FF0125EEE74FF47A7103A802F04B
:100460006DF838B99DF80C30312B05D0322B0CBF0C
:10047000052500253C27DEE70225FBE701221121A7
:10048000AE4800F03DFD2C220021304602F019FA62
:1004900020231EAA04A95AA800F034FF0025FF2338
:1004A000012105207370758000F02EFC00F074FDB2
:1004B00018B10121284600F0E5FDFFF7F1FE032504
:1004C000B9E7432001F03EFF00214FF47A7000F0BD
:1004D0001BFC00F061FD18B900F03CFC0028F8D0CE
:1004E00000F05AFD0028B1D1013FA4D1182001F03D
:1004F00029FF00259FE7002185220DF1E10002F090
:10050000E0F9002140F6B83000F0FEFB00F044FDB9
:1005100088B34FF47A730093012303AA19460DF1AF
:10052000E10000F05DFD9DF8E130012B0DD140F6BA
:10053000B832842100920DF1E20003AA00F050FDD0
:10054000039B0446842B1AD1D8B90DF10B010DF190
:10055000E100FFF7AFFE40F60713984204461AD1B8
:10056000B378A3B1F37893B106259DF80B00182852
:1005700008BF062508E000F0EDFB0028C6D040F2D9
:10058000047415208DF80B0001F0DCFE53E71823EE
:100590008DF80B30E8E70028E7D19DF8E130012B1A
:1005A000E3D180233146CDF8008039AA5AA800F063
:1005B000E3FE04460028D8D018238DF80B30D4E78A
:1005C0000121002000F05EFD01210A2000F09CFBCB
:1005D0009DF80B300122062B08D140F607139C42F0
:1005E00004D11B21564800F08BFC82E71A215046AB
:1005F00000F086FCA4F51063B3F5E06F4FF0010244
:1006000013D211214F4800F07BFC40F606139C42A8
:1006100013DCB4F5106F10D0A4F60213042B4FD8DE
:10062000DFE803F050484C5254001021584600F0C7
:1006300067FC40F606139C421ADC9DF80B309F2B9A
:100640004FEA13108CBF3730303000F091FC9DF82A
:100650000B0000F00F0009288CBF3730303000F05D
:1006600087FC0D2000F084FC0A2000F081FC40E7AC
:10067000A4F58053013B092BDFD8A4F58053013B3F
:10068000092BDAD801A252F823F000BFE1060008D6
:100690003B0600083B060008E5060008D5060008F2
:1006A000DD060008E1060008D9060008D1060008AA
:1006B000E106000821238DF80B30BEE72223FAE77C
:1006C0002323F8E72423F6E72523F4E72723F2E79B
:1006D0004123F0E74323EEE74423ECE74523EAE731
:1006E0004F23E8E75023E6E7B37813B3F37803B377
:1006F00033785A0709D5B06A01F090FE00283FF41C
:10070000F8AE114800F044F9F3E69B070CD5756884
:1007100001F07FFE854203D9716A0B4800F0EEF8C4
:100720000122132148465EE740F2012000F066FAFC
:10073000F6E740F2032000F061FADAE6982A0008B2
:100740007D2A0008522A0008008000082F2A00088D
:10075000632A0008422A000837B500F1006303F558
:1007600000430193104B0D46984214461AD8019A43
:100770000E4B9A4216D2019A9B1AA34212D348B941
:100780004FF000639B6A0A4A5969914202D918697D
:1007900000F05EFA22462946019803B0BDE83040D9
:1007A00001F0EABD03B030BDFF7FFFF700E017089E
:1007B000008000087FB56FF0006200F1784191423F
:1007C000034619D26D460D4A02F110062C461068F8
:1007D0005168083203C4B2422546F7D15A1E04A913
:1007E0000F3311F8014D12F8010F844204D19A42DF
:1007F000F7D1012004B070BD0020FBE7A92A000852
:10080000F0B50368044603F16043B3F5802F9FB051
:1008100033D84FF000639B6A42681E6996422CD819
:10082000344B9A4229D8456B06F14002AA425ED861
:100830009D425CD82846FFF7BDFF002857D02846C8
:1008400001F0CDFD80B16B6973B1022B0ED1AB69A4
:10085000C4F1040119444FF0FF32204601F0DCF8E6
:10086000254BC31A584258411FB0F0BD40F20463F3
:1008700028460293FFF79EFF08B90020F4E74FF0E7
:1008800000635F6B3846FFF795FF0028F5D0A6F1AF
:1008900050039F42F1D8284603A901F0A7FD002884
:1008A000EBD0039DAE42E8D8AC42E6D8114B9D4256
:1008B000E3D804A801F074F921462A1B04A801F02A
:1008C00016FF04A801F015FF01F07AF9044601F0C3
:1008D00095F923460090294605F1200204A801F06D
:1008E000DFF802900298B0FA80F04009BCE70120DE
:1008F000BAE700BF00001808E320BBDE70B54FF078
:10090000FF3290B005460C4601F086F81C4B984229
:1009100032D14FF480621B4B00219A6601A81C2241
:1009200001F0CFFF184B29466846043C009302F0C3
:100930001AF82146684602F016F8684602F01CF8DC
:1009400001F011FD0646B8B940F2022000F04AF964
:100950001C22314609A801F0B4FF0C4B294608A817
:10096000089302F000F808A8214601F0FCFF08A84F
:1009700002F002F801F0F7FC002010B070BD00BFDB
:10098000E320BBDE00900040010005430100064368
:100990004FF4806230B50446154B91B09A66002141
:1009A0001C2201A801F08DFF124B214668460093DE
:1009B00001F0D9FF684601F0DFFF01F0D4FC0546E5
:1009C00098B940F2022000F00DF91C22294609A82E
:1009D00001F077FF084B08A82146089301F0C3FFF8
:1009E00008A801F0C9FF01F0BEFC002011B030BD25
:1009F0000090004000000243000003434FF4806277
:100A000010B50F4B8CB004469A6600211C2205A835
:100A100001F057FF0B4B01940493012302930A4BFF
:100A200001A904A8039301F013FF04A801F0A4FF97
:100A300001F099FCB0FA80F040090CB010BD00BF85
:100A40000090004000000843040000200048704768
:100A50000080000840B139B100230B60034B0360F4
:100A60000B6843F400230B60704700BF0C120008B2
:100A700013B501A801F0FEFA9DF80530012B14D141
:100A80009DF804308BB94FF48012234B2349586EE4
:100A900003F580535A664B6BC00223F0E05343F0DA
:100AA00040634B635CBF1E4B5A664FF04023D3F844
:100AB0008420110606D44FF400621A67D3F884200C
:100AC000D206FBD401F0BAFC00F076F801F035FC58
:100AD00001F035FC18B14FF4017000F08FF8FFF70A
:100AE00047FC044601F02DFC34B940F2012000F02F
:100AF00085F84FF4017009E040F203739C42F4D092
:100B0000A4F20574012CF4D840F2032000F076F82A
:100B1000002002B010BD00BF008000400040004A2D
:100B200000A00040012307B58DF806308DF807308E
:100B30004FF04023D3F894305A060AD500F072F8EB
:100B4000A0F2022080B2072803D8C923C340DB07E4
:100B500002D400F0FFFA20B100238DF806308DF8A2
:100B60000730134B5B68013308D14FF4027000F07B
:100B700039F800238DF806308DF807309DF80730DE
:100B80005BB10B48FFF73CFE8DF806009DF8063080
:100B90001BB94FF4027000F025F89DF8063023B120
:100BA0000348044B986001F04DFC03B05DF804FB72
:100BB0000060000800ED00E04CF23C32014B5A802E
:100BC000704700BF000000204AF6C030044B5B882D
:100BD00023F00F039BB21B1A58425841704700BFC5
:100BE00000000020044A08B51080FFF7EDFF10B99F
:100BF0004FF20F03538008BD0000002008B5FFF737
:100C0000F1FFBFF34F8F0549054BCA6802F4E0625C
:100C10001343CB60BFF34F8F00BFFDE700ED00E053
:100C20000400FA054FF20F01084B5A888A4201D19D
:100C3000188870473AB91B8840F20220012B18BF70
:100C40004FF4007070474FF40070704700000020B0
:100C50004FF4803208B5044B9A6601F073F9B0FA8C
:100C600080F0400908BD00BF00900040072BF8B598
:100C700006460F4614461D4601D90020F8BD012145
:100C8000202001F0DBF80121212001F0D7F88CB100
:100C900044EA06039B07F0D14FF48032064B3146FD
:100CA0009A66284623463A4601F074F9B0FA80F075
:100CB0004009E3E70120E1E7009000401FB5102262
:100CC0000E4B5A6600F0FCF94FF47A23B0FBF3F0B8
:100CD0000B4B0F22186000210DF1010001F0F1FD16
:100CE00001238DF8003040F2FF3369460548ADF826
:100CF000023001F034FD05B05DF804FB00900040C7
:100D0000541000200080044030B50D4D0D4A2D6870
:100D1000536A15FB00F515FA83F09CB280B2A0422D
:100D20002CBF00240124084B1880084B1C7011B103
:100D3000536A8342FCD1012305494B61936130BD65
:100D400054100020008004405C100020611000203E
:100D500000A00440094B0A4A5869127800F00100CB
:100D60000AB108B9704738B9586A064B1B889842CF
:100D700034BF0020012070470120704700800440EC
:100D8000611000205C1000202DE9F047DFF83C9155
:100D9000464BD9F80020464F02F13C01996002F120
:100DA00024037B627B604FF08063DFF824A101267F
:100DB0000AF58058C8F864304FF40073C8F86430FE
:100DC00002F580535E6040F6AA630024536141F24D
:100DD0000503384D384802F500519460D465D3605E
:100DE0001461D461D4648864C5F82047C5F83847D5
:100DF000C5F83047C5F82847C5F82C47D360936835
:100E0000936000F05DF9DAF870303146C3F3802367
:100E10003344B0FBF3F24FF4E11302F5E142520127
:100E2000B2FBF3F2254B203A03EAC203D9F80020C3
:100E30000220D3613346042201F01AF8022133461E
:100E40000846324601F014F81423C5F820371C4B2D
:100E50000522C5F838374FF00213C5F83037D9F8F6
:100E600000304FF0F0515A6103234FF48020154AAF
:100E7000C8F86430566091601349546294631464F6
:100E80005465486002301466D46517678860A1F520
:100E90000051C2F89040C2F88C404B630223966424
:100EA00002F580521361BDE8F08700BF24130020D3
:100EB000E412002000C00340FFFF0100F8FF7F00A4
:100EC00002000100000004400040044034130020F0
:100ED00000800040084B586B10F0020006D0022240
:100EE0009A6203F5005301205A637047DB6A9B073F
:100EF000FBD40222014BF6E700000440002004402E
:100F000070B54E1E7E2E0446154622D8FFF7E2FF2E
:100F100010B32046124B214410F8012B884203F8ED
:100F2000012BF9D10F4B1A8866F30E121A800E4A64
:100F3000C2F8A030022393640DB9002070BDFFF702
:100F4000C9FF0028FBD0094B1A6893699B06FCD5A2
:100F5000F3E741F20310F1E741F20620EEE700BFAC
:100F600062100020241300200000044034130020ED
:100F7000014608B5FFF7AEFF0028FBD0054B1B6804
:100F80009A695006FCD5D9639A699206FCD500206F
:100F900008BD00BF341300200E4A0F4B106840F20A
:100FA0000112DB6E934205D190B10023C0F50070B1
:100FB0001844704740F2022293420EBF4FF48073F0
:100FC000064A9B1A984202D0F0D2181A70470020A5
:100FD000704700BF5810002000000440E2100020BD
:100FE0002DE9F843089D04460E461746F3B9FFF76E
:100FF000D3FFB04228BF304600214FF001084FF028
:1010000002091D4A054604EB000C1368DFF870E086
:101010001A4864451CD101B1136007B13D6041F22B
:101020000420AE4298BF0020BDE8F8832DB1FFF741
:1010300045FE00212846FFF767FEFFF7ADFFB042EF
:10104000D5D2002DF9D0FFF785FE0028F5D0CEE7E8
:101050001EF803100133B3F5007F04F8011B04D11F
:101060000023C0F810900121D3E7B3F5807F08BFBB
:10107000C0F81080F7E700BF5810002000100440AF
:10108000E210002010B10222094B9A6271B10122D4
:101090000020074B07499A624A63074919670749C5
:1010A00008609A64022203F580531A610020704799
:1010B0000000044000200440E412002058100020EA
:1010C00030B51C4B87B001AA03F11005144618680F
:1010D0005968083303C4AB422246F7D11B7823700A
:1010E000154B1B6F03F00703032B1FD04FF4802217
:1010F000124B5A66124A9368C3F30443102B17D855
:1011000018336B440F4913F8143C4B430E498B4280
:1011100003D19268C2F30162D340074A106FC0F353
:1011200003300130B3FBF0F007B030BD074BF4E7FC
:10113000074BF2E7542B000800800040009000406D
:101140000000014040420F0000093D0000F049024C
:10115000C0EA21014FF08062164B13B55A66002198
:1011600001230422022000F083FE00230093009B51
:10117000632B19DD022201230021104600F078FEC6
:1011800000230193019BB3F5FA7F10DB00220A4B89
:101190001146D3F8A4400220012300F069FEE04389
:1011A00000F0010002B010BD009B0133DEE7019B9F
:1011B0000133E6E70090004000C0034030B502462E
:1011C00000230C25054905FB03F460180C599442D3
:1011D00003D001330C2BF6D1002030BD682B000862
:1011E000F0B50023082787B0CDE9013315463B460B
:1011F000009704AA044601F0CCF941F20303984297
:10120000064623D194F8433053B13A46E06C04A922
:1012100001F06DFA04AA3B461146A06C01F056FAA3
:10122000059A049B6A6094F843202B6052B9094ADE
:10123000934207D0084A934204D00822E06C04A9E4
:1012400001F055FA6B68236500236365304607B0EB
:10125000F0BD00BFF70A0AF7FC0404FC2DE9F047D3
:1012600099465B6804460F469046002B3FD08B079B
:1012700040D14FF000639B6A006E1B6981181D1DF1
:10128000A9421BD31C33984218D2A842024638BF49
:101290002A46994294BFC2EB010AC2EB030A101A14
:1012A0003E18C5F16800104431465246204401F012
:1012B00010FB5246FF21304601F003FB226E0F4B1C
:1012C0009A420BD80E4902EB0800884206D39B1ABB
:1012D000FA58C4F880204FF0FF32FA50D9E90035AF
:1012E00042463946206EA847236E434423660020B9
:1012F000BDE8F08741F20200FAE700BF0480000871
:10130000088000082DE9F04100254FF0FF37044622
:101310008846164603F0200380F842301822FF2149
:10132000C0E91855A0F8405080F84350A0F8445048
:1013300080F84650C0F88870683001F0C2FA882200
:101340002946C4E91286C4F88070C4F8847004F198
:10135000900001F0B6FA074BC4F82071C4E9463595
:1013600084F8245116B1304600F01AFC0020BDE884
:10137000F08100BF000101012DE9F04FA5B09946B1
:10138000CDE91123002304460E464FF001082E9D9F
:101390001393139978E094F846300C2B70D8062BF1
:1013A0004BD908FA03F212F4286F40F00F8212F4BE
:1013B000885F40F0BA810A2B66D1DFF8BCA3636D69
:1013C000072B00F228814FF0080B382316AA20467D
:1013D000CDE90188CDF800B011A901F0DAF841F2A9
:1013E00003030A900A9A9A4200F03F810A9B5BE04D
:1013F000A3F10E02052A00F29482DFE812F0060340
:101400000600F5003602360204030027636D0F2B39
:1014100000F28A80102314AA009320464023CDE9CD
:10142000018711A901F0B5F841F203030890089A69
:101430009A4200F0CB80089B36E0013B052B27D871
:10144000DFE813F074006E000600C401DC007B01CD
:101450000127636D072B00F2DE80082314AA009396
:1014600020464023CDE9017711A901F092F841F21D
:1014700003030B900B9A9A4200F021810B9B13E01F
:10148000A3F10D02062AB3D9494584D3002065E0B3
:1014900014AA204611A9FFF7A3FE41F2030205900A
:1014A000059B934208D0059B049341F20303049AE1
:1014B0009A423FF46EAF50E0159A149922650022CB
:1014C0006265AB4A914240F00781022284F84620CF
:1014D000EAE7082314AA009320464023CDE90187B8
:1014E00011A901F056F841F203030690069A9A42B8
:1014F00001D0069BD8E7149B03F07F43B3F1407FF4
:1015000005D0132384F8463041F20903CCE7159B3C
:10151000D90706D594F8423043F0010384F84230ED
:101520000027636D072BD4D9012303E1204614AAB9
:1015300011A9FFF755FE41F203030790079F9F4251
:101540000FD0079F41F203030497049A9A423FF495
:1015500020AF049B0BB10023F370049825B0BDE8C5
:10156000F08F1498FFF72AFE28B9132341F20807D9
:1015700084F84630E6E7437994F824219A4205D965
:10158000132341F20E0784F84630DBE702687949FD
:101590008A4205D00289D20748BF013384F824313A
:1015A00094F84230D9070DD5028994F84330920758
:1015B00006D53BB1132341F2010784F84630C1E759
:1015C000002BF7D0037984F84630BBE7D4F848A065
:1015D00000F032FB80230221CDE9000315AA01238C
:1015E000504600F031FA11E7226D0123A265002276
:1015F00084F84330E26584F84630CAE600213C2294
:1016000015A81491012701F05CF9D4E91432934232
:1016100004D884F8467041F2030345E7009314AA06
:1016200040232046CDE9017711A900F0B2FF41F235
:1016300003030990099A9A4201D0099B34E70DF1FE
:10164000500C06F108030DF1680E624603CA72459C
:1016500018605960944603F10803F6D110681860C9
:10166000337843F001033370CFE7337843F004035A
:101670003370179BB36273785F071CD50020236D0E
:10168000CDF850A0C4F8843094F84530606643F03B
:10169000020384F84530EF686FB104222B6814A967
:1016A000B847606E2B685A46EF6816A90830B847ED
:1016B000636E103363660B2384F846307FE633781D
:1016C00043F002033370149B7360236D083B736215
:1016D000159BB3F1006F05D0132384F8463041F217
:1016E0000103E1E6042384F8463094F8453043F0E2
:1016F000010384F8453000236366AAE6042314AA94
:10170000009320464023CDE9017711A900F041FF65
:1017100041F203030C900C9A9A4201D00C9BC3E651
:10172000226D149B042A01D923660127636D032BC4
:10173000E4D9092384F846306DE700236366072364
:1017400059E79F4252D89F4228BF1F46402314AA00
:101750002046CDE90188009711A900F01AFF41F257
:1017600003030D900D9A9A4211D00D9B9CE600BF89
:10177000EB17A603F90707F9EB17A65E402F28BF62
:1017800040279F4228BF1F4627F00307DEE794F853
:1017900046B0BBF1070F2FD0042FC7F1040A88BF52
:1017A0004FF0000A14AB5246FF21D81901F089F816
:1017B000BBF1090FBA442DD12B465246204614A93D
:1017C000FFF74CFD0D900D9B002BCED1D4E9147387
:1017D0009F427FF6A9AEFF1ADDE912329B1A94F8F8
:1017E0004020032F1344ACD9032BC7D8204611A99E
:1017F00000F0AEFE002357E6D5F808A0BAF1000FBE
:10180000CAD02B683A46606E14A9D047636E3B4439
:101810006366DBE7BBF1040F1DD173789807D5D55C
:10182000EB68002BD2D0626E042A0BD80AEB0203BD
:10183000062B07D915AB9B1A1A68C4F884204FF001
:10184000FF321A60EF682B685246606E14A9B847E1
:10185000636E5344DCE7BBF10B0FB7D173785907C4
:10186000B4D5EF68002FEED1B0E74FF000618A6A7F
:10187000496B1269503A91423FF631AF112B0FD1AB
:1018800094F81831002B7FF44FAE41F206030E930B
:101890000E9A9A4202D1132384F846300E9B03E637
:1018A00094F84430002B7FF43FAECDE90133402360
:1018B00014AA0093204611A900F06BFE41F2030325
:1018C0000E900E9A9A42E9D1E06C00F012FF94F863
:1018D0001831A3B104F1B4030093E06C04F1940354
:1018E0001CAA14A900F0DCF80E900E9BA3B10023F3
:1018F000F370132384F8463041F20603D4E5D4F89C
:101900004CA000F05DF9074600F078F93B460090E6
:101910001CAA504614A9E5E70123F37084F844306B
:1019200002E600234FF00408CDE9013314AA402356
:101930002046CDF8008011A900F02BFE41F20303F0
:101940000F900F9A9A4202D00F9B049305E6D4F8A9
:1019500088202F4B9A4205D0132384F8463041F259
:101960000503F2E70123F37094F84530DA0707D551
:10197000EF682FB1424640462B6804F18401B84716
:1019800094F845309B0707D5EF682FB104222B68E8
:10199000104604F18401B847236E6BB36F685FB3E0
:1019A0004FF0FF3304F180080422414610A8109341
:1019B00000F077FF20B1042241462B681548B84754
:1019C00004F168090422494610A800F06AFF98B1A2
:1019D0004FF000639B6A1422D3F8108004F16C016D
:1019E00008F10800D5E90037B847D5E900370422E7
:1019F000494608EB0200B8470123B3700E2384F870
:101A000046300023A1E70023F37041F20700A5E56B
:101A1000E320BBDE0480000830B50824094B002514
:101A20005C66012403F5FE235C6001449D601A613D
:101A3000DC60884201D1586A30BD10F8012B1A626F
:101A4000F7E700BF009000402DE9F04116464FF443
:101A500080621D46114B00F1200804469A664046FC
:101A60000F4600F0FFFEDDE90612404600F0FEFEE4
:101A7000002384F8587063643368C4F8593073687D
:101A8000C4F85D30B368C4F861302B0C6DBA84F8CB
:101A90006530A4F86650BDE8F08100BF00900040BA
:101AA0002DE9F04315464FF480621C46364B99B041
:101AB000DDF880900E4607469A66002861D000291E
:101AC0005FD0002D5DD0002C58D0304B304AB9F19A
:101AD000000F14BF984690461C22002111A800F068
:101AE000F0FE2C4B414610A8109300F03CFF202143
:101AF00010A800F038FF0122274B019402920393B3
:101B0000CDF810900592069354B1B9F1000F07D0AB
:101B100001A910A800F092FE04A910A800F08EFE02
:101B2000079701271C4C07A910A80897099400F0F3
:101B300085FE0AA910A80A960B970C940D950E978E
:101B40000F9400F07BFE0DA910A800F077FE10A8FE
:101B500000F012FF114B00934FF098435A6CD202E1
:101B6000FCD55B6D40F2046003F470230093009B8E
:101B7000002B08BF002019B0BDE8F083DFF810800B
:101B8000AAE740F20160F6E7009000401F240080C1
:101B90001F24FC8400000106200000207856341227
:101BA0004FF4806210B50446044B9A6600F0A4FD21
:101BB0002046BDE81040002100F0A2BD009000408A
:101BC0004FF4806200B50B4B9BB09A660021242233
:101BD00001A800F076FE402300210AAA01A800F027
:101BE0005BFA20F010000128034818BF00201BB04A
:101BF0005DF804FB009000404CE317084FF480624E
:101C000000B50B4B9BB09A660021242201A800F07E
:101C100058FE402300210AAA01A800F03DFA20F056
:101C200010000128034818BF00201BB05DF804FB1A
:101C3000009000406CE317080048704786E21708E0
:101C40002DE9F3471446DDE90A920D461F460028A8
:101C50004DD14CB313683F2B2AD8516851B3254955
:101C6000002F14BFB846884603F03F061B191360C7
:101C700022BF536801335360FEB93F2C0ED9A3092C
:101C80002A46009341463B46002000F083F824F0AA
:101C90003F031D4404F03F0434B100262246294688
:101CA00009EB060000F015FE002002B0BDE8F08749
:101CB000B846D9E7DFF83C80D6E7C6F1400A54457C
:101CC000ECD32946524609EB060000F002FE012340
:101CD000264400934A463B4641460020A6F1400474
:101CE00000F058F83F2C5544D6D9B846C7E702480B
:101CF000DBE700BF382C000880AFFFFF2DE9F04183
:101D00001746146886B01E46E3008DF80F3063094D
:101D10008DF80E30630B8DF80D30630D8DF80C309F
:101D200053680546DA0002EB54728DF80B2004F07C
:101D30003F045A09372C8DF80A204FEA53324FEAF4
:101D400053538DF80920884694BFC4F13802C4F17A
:101D50007802CDE900178DF808300D4903460020C0
:101D6000FFF76EFF08222B460020CDE900870DEB20
:101D70000201FFF765FF284605F1200350F8042B08
:101D8000984246F8042BF9D1002006B0BDE8F08156
:101D9000F82B0008F0B517464FF480621D46254B1E
:101DA00093B00E469A660446202200210AA800F04D
:101DB00088FD01204FF00052019702900392049693
:101DC00005900692079508900992002C2FD1189C37
:101DD000194BA40121460AA80A9300F0C4FD039BF5
:101DE00004A91C430394069B0AA843F0200306930E
:101DF000099B43F02003099300F020FD01A90AA8E4
:101E000000F01CFD07A90AA800F022FD0AA800F0B6
:101E1000B3FD4FF098435A6CD202FCD55B6D13F4BE
:101E2000702F14BF6FF06F00002013B0F0BD6FF083
:101E30007100FAE70090004000040103430905D057
:101E4000012B0CD0022B084B18BF002300F01F0001
:101E500039B103F58053012282401A607047034B69
:101E6000F4E703F50053F6E7688000406480004023
:101E70002DE9F04105460F461E4690464AB1012322
:101E80003022194C8B4002FB004436B304F58254D7
:101E900023600F21072F05EB450388BFA7F1080436
:101EA0004FEA0313114895BFBC00A40004330C3360
:101EB00008FA04F2A140184400F03BFCB8F1000F0E
:101EC00009D101233021084ABB4001FB05223EB164
:101ED00002F582521360BDE8F08104F50154D7E7A2
:101EE00002F50152F6E700BF00C0034030C00340D6
:101EF000F0B5114A114C124E00F00105E3695F077D
:101F000013D40DB9334213D103EA00078F4207D12E
:101F10000B4A1A40002A0CBF00206FF00100F0BDF0
:101F2000013AEBD16FF00200F9E74FF0FF30F6E72E
:101F30006FF00100F3E700BF8096980000000340B7
:101F4000020001004FF4803238B50E4B0E4C9A66F9
:101F5000E56941F6713315400122E3630B4B002123
:101F6000DA600223606121202361FFF7C1FF10B90D
:101F70002120FFF7BDFF0122054BDA600DB10023E0
:101F8000E36338BD009000400000034000100340B0
:101F9000002003402DE9F04F01274FF43025302673
:101FA0008400DFF8C0C004F1402404F58024CCF89C
:101FB0000470656000244FF48035DFF8ACE0DFF892
:101FC000AC9006FB00E6F46534663467234CDFF81A
:101FD000A0A0A56641F6713504F51C34D4F81C8028
:101FE000E563E56807FA00F03D43E5604BB9E26858
:101FF00018F4803F22F00102E26029D10020BDE800
:10200000F08F01F5005505EA09056D1A9D4228BFBC
:102010001D466161D4F81CB0AF081BF0040F19D144
:10202000013F3F0147F060577766B266C6F86CA083
:10203000CCF82400DEF834703842FBD0084F294435
:1020400078630427CCF828002A4427615B1BCDE77E
:10205000E363D3E74FF0FF30D1E700BF00900040CB
:1020600000200440001004400000044000E0FFFF96
:10207000180003404FF48032064B5A6603F5E623FE
:102080009B69C3F38512827003F03F021B0B427001
:1020900003707047009000401FB5044608B302B3B8
:1020A000402B1ED193071CD1C1B1012919D14FF486
:1020B00000710D4B01920B4323600023C4E90133EF
:1020C000E36101230293094B204601A9039300F029
:1020D000BFFB204600F01CFC04B010BD4FF4807123
:1020E000E7E72120F8E700BF010008FF40000020DB
:1020F0002DE9F041012905460E4690461F4692B053
:102100004AD8046824F04003802B02D0B4F5807FC5
:1021100045D11C2200210BA800F0D3FB234A244BFD
:102120000121012E08BF13460A932B1D0193E408D9
:10213000204B44F0005402910AA80394CDF810807B
:10214000059106930797089101A9099300F076FB82
:1021500004A90AA800F072FB07A90AA800F078FBFE
:1021600029680AA8C90800F0FEFB10210AA800F09F
:10217000FAFB00F0BBFBA8B90AA800F0FDFB4FF08A
:1021800098435A6CD202FCD55C6D00F0B9FB04F4A4
:10219000702012B0BDE8F0816FF02000F9E76FF019
:1021A0007100F6E74FF0FF30F3E700BF00010004D5
:1021B00000010104100000202DE9F04F0746894678
:1021C0009846164699B082B115683B6823F04002E4
:1021D000802A03D0B3F5807F40F0A68000244C45D0
:1021E00005D306B1356000207BE01546EDE75DB113
:1021F000239B229A1B5D525D01355340249A05F0C2
:102200000F0513550134EAE7A9EB040ABAF10F0FE1
:102210000BD8239B03EB040A249B1C44239B03EB56
:10222000090BDA4560D14C46D9E71C22294611A892
:1022300000F047FB3E4B3A6810933B1D019301238E
:10224000D20842F00052029303923A4ACDF810802D
:1022500005930692CDF81C8008930992239A24993D
:1022600022442AF00F0A0A9221444AF000520B93AA
:1022700010A80C920D9101A90E930F9200F0DEFAB6
:1022800004A910A800F0DAFA0AA910A800F0D6FAFA
:102290000DA910A800F0DCFA07A910A800F0D8FAE0
:1022A000396810A8C90800F05EFB514610A800F07C
:1022B0005AFB00F01BFB90B910A800F05DFB4FF03B
:1022C00098435A6CD202FCD5586D544400F4702BDC
:1022D00000F016FBBBF1000F9BD0584601E04FF019
:1022E000FF3019B0BDE8F08F55B1229A1AF8013BC2
:1022F000525D0135534004F8013B05F00F0590E7AE
:10230000424601213846229BFFF7F2FE0028E8D121
:1023100008F1100212F8013D0133DBB21370002BFB
:10232000E3D19045F6D1E0E76FF01F00D9E700BF99
:102330000303000410000020FEE700F012B8FEF7CF
:102340001FB8704710B50446FEF712FE182C07D1CF
:102350002046FEF70DFE2046BDE81040FEF708BE01
:1023600010BDFEF711BD4FF098435A6CD202FCD558
:10237000586D00F470207047C0F30C032DE9F04154
:1023800005460F4616460BB9FEF762FC05F50054EC
:1023900024F4FF5424F01F0405EB0608A04507D8D9
:1023A000324639462846BDE8F0410223FEF75EBCBE
:1023B0002046FEF74DFC04F50054EFE770B44FF0F3
:1023C0000065AD6A03462E69864206D86C691344DF
:1023D0009C4202D370BCFFF7CFBF70BC704703694B
:1023E00013F0FE0F0CBF01200020704738B50446E3
:1023F0000D46FEF7DFF938B16369012B07D120469E
:10240000FFF7EDFF10B1A46901202C6038BD00205A
:10241000FCE74FF000639B6A986870474FF0FF330A
:1024200013B5044601A80193FEF7E8FA20B1019B19
:10243000A3422CBF0020012002B010BD0020704735
:102440000020704703461846016881F3088881F32D
:10245000098840688746FEE74FF40170FEF7CEBB5F
:10246000B1F50D7F10B504460FD34FF40D72002166
:1024700000F027FA04F5DE7204F5AA7104F12C00CD
:102480000023BDE81040FEF73DBF40F2052010BD1F
:1024900013B50446009101462C30FEF76DFFC4F8D9
:1024A000300218B141F20703984204D1A37823B156
:1024B000E07800F2022002B010BD40F20120FAE7FD
:1024C0002DE9F04387B00DF1080904460E46174682
:1024D0000021102248461D46DDF8388000F0F1F951
:1024E00000211C22C8F80010284600F0EAF9324604
:1024F0003B462146CDF8009004F12C00FEF73CFF4E
:1025000023789A0744BF6268C8F80020DB0709D522
:1025100004F1080304F1240253F8041B934245F824
:10252000041BF9D1237840F20640002B18BF00208D
:1025300007B0BDE8F0834FF40D707047012307B575
:10254000002200911946FEF74BFD03B05DF804FB35
:1025500070B5D1E90152AA4205D290F840302B441F
:102560009B1A402B10D9002012E00A6890F84040D6
:10257000D65C90F841200133224402F03F0201343E
:1025800086548B6080F840408B689D42EDD80120D6
:1025900070BD2DE9F84390F840C017469E46D1E93A
:1025A0000123089DD21A6244954204460E469DF8C6
:1025B00024909DF828800AD9FFF7CAFF002867D128
:1025C000132341F2020084F84630BDE8F8837545D4
:1025D00055D8002394F840200AB19D4235D1D6E960
:1025E0000121914201D29D4241D89D424DD12946BF
:1025F0003846D4F88820FFF70FFAC4F88800B9F1FC
:10260000000F04D02A463946E06C00F070F894F8C8
:102610004330B8F1000F06D08BB12B463A4639460D
:10262000A06C00F053F894F8433043B1E36DA26D11
:102630002B449342E36524BF002384F84330636D49
:1026400041F203002B446365BFE794F84120A25C8C
:10265000FA5494F841200133013202F03F0284F829
:10266000412094F84020013A84F84020B2E73268D3
:10267000525CFA54B26801330132B260AFE741F202
:102680000100132384F846309FE741F20200F8E787
:1026900000209AE749BA89B24840C0F30312424089
:1026A00013B283EA0233580100F4FF509BB2584042
:1026B000704738B5044645181046AC4200D138BDC5
:1026C000014614F8010BFFF7E5FFF6E71FB50C46CE
:1026D000194600F14803CDE90142009300F144029C
:1026E00000F158032030FFF767FD04B010BD00F083
:1026F0000CB8014600F016B86822002100F0E1B8DD
:1027000003460020C3E90000704707B500F1280325
:102710000190009300F108030020FFF791FA03B045
:102720005DF804FB02460B4600F128010830FFF774
:10273000E5BA70B5054614460E4600F010F92B6850
:102740005C4034405C402C60BDE8704000F002B951
:10275000036BDA0702D503695B06F9D4704710B53D
:10276000FFF7F6FF0122044600F500531A63236BBE
:102770009B07FCD40B794A881B0243EA82438A7A7E
:1027800013434A7843EA8213CA7A43EAC2130A7BA4
:1027900043EA42134A7B43EA02138A7B43EAC203B9
:1027A000CA7B43EAC2238A7943EA0243CA7943EAED
:1027B00042430122636004F580531A630A780AB920
:1027C0000223E360002363624B79087A1B01497A94
:1027D00043EA80030B43A3600AB10123E36010BD09
:1027E000B0F5802F22D010D8B0F5003F20D007D808
:1027F00018B3B0F5803F08BF482018BF01207047CC
:10280000B0F5403F08BF2C20F7E7B0F5302F11D0CE
:1028100007D8B0F5E02F0FD0B0F5202F08BF10205B
:10282000EBE7B0F57F0F08BF0620E6E74B207047C7
:102830002A2070471120704721207047436813B940
:10284000416070475B685A68012AFBD15960704744
:10285000836813B9816070475B685A68012AFBD1AD
:10286000596070472422002100F02BB870B515463E
:102870000E4624220021044600F023F825F04003F0
:10288000802B02D0B5F5807F08D12046314640F834
:10289000045BEA0800F01DF8002070BD6FF01F0017
:1028A000FBE70139024410B5904201D1002005E058
:1028B000037811F8014FA34201D0181B10BD01305D
:1028C000F2E702440346934200D1704703F8011B2C
:1028D000F9E70A44431E914200D1704710B511F840
:1028E000014B914203F8014FF9D110BD4FF48062C2
:1028F000024B9A66BFF34F8F002070470090004054
:102900004FF48062014B00209A66704700A000409F
:1029100008B5C0B14FF480620C4B9A66BFF34F8F7D
:1029200000F02AF84FF098435A6CD202FCD54FF4CD
:102930008062586D064B10F470209A6604D0BDE892
:102940000840FFF74DBF212008BD00BF00900040A8
:1029500000A0004010B962B6BFF36F8F7047EFF36D
:10296000108072B67047C369032B9FBF00EB8302D0
:102970000133D160C3617047C369042B14D84FF091
:102980009842116CC902FCD504339B0013650168A1
:10299000103B11604168116050F8081F11604FF042
:1029A00098420344984200D1704750F8041F1160C8
:1029B000F8E7000000000000000000000000000038
:1029C000F8B500BFF8BC08BC9E467047F8B500BF1C
:1029D000F8BC08BC9E46704700000000BD230008FC
:1029E00000000000590700080D0A4765636B6F205F
:1029F000426F6F746C6F616465722076582E5959FE
:102A00002E5A5A0D0A312E2075706C6F6164206742
:102A1000626C0D0A322E2072756E0D0A332E2065FF
:102A2000626C20696E666F0D0A424C203E20000DDC
:102A30000A4661696C656420746F20626F6F740D63
:102A40000A000D0A66696C65206572726F7220302B
:102A500078000D0A626C6F636B206572726F722072
:102A60003078000D0A53657269616C2075706C6F67
:102A700061642061626F727465640D0A000D0A530F
:102A8000657269616C2075706C6F616420636F6D35
:102A9000706C6574650D0A000D0A626567696E20C9
:102AA00075706C6F61640D0A00B814B6F1E0CFF375
:102AB000ADB7DD25C9FA79B71300000013B779FA6D
:102AC000C925DDB7ADF3CFE0F1B614B801020000BF
:102AD00000000000C42C00004000000001000003C2
:102AE00000000000000000000000000000000000E6
:102AF00000000000000000000000000000000000D6
:102B000000000000000000000000000007B0CD5EE3
:102B10000200000001000003C82C00000060000853
:102B200000001808F00410003D24000841240008AB
:102B3000010800086124000891240008000000003A
:102B4000C12400083725000800000000550A0008CD
:102B50004D0A00080400000700000D1013001A20A1
:102B60002630384050000000EB17A6030201000099
:102B700003000000FA0606FA0F040000030000003C
:102B8000F40A0AF40505000001000000EB17A65E38
:102B90000A06000001000000F50909F5030700001E
:102BA00001000000F60808F606080000000000001A
:102BB000FE0101FE0808000000000000FD0303FD07
:102BC0000C08000000000000F90707F910090000D8
:102BD00002000000F30B0BF3110A000003000000D9
:102BE000F70A0AF7120B000003000000FC0404FCC3
:102BF0000D0C000003000000800000000000000039
:102C000000000000000000000000000000000000C4
:102C100000000000000000000000000000000000B4
:102C200000000000000000000000000000000000A4
:102C300000000000000000006A09E667BB67AE857F
:102C40003C6EF372A54FF53A510E527F9B05688C8E
:082C50001F83D9AB5BE0CD1935
:0C2C5800642C0008E412002018000000AA
:102C6400F00F100300000000E21000201300000029
:102C7400090000000001000002020000130000002F
:102C8400F00F100300000000E21100201300000008
:102C9400090000000002000001010000D3FFFFFF53
:102CA400F07F1030621000200000000000000000DF
:102CB40000C005402900000015020008ED010008CD
:04000005080001717D
:00000001FF
